{
  "contractName": "Diploma",
  "abi": [
    {
      "constant": true,
      "inputs": [
        {
          "name": "",
          "type": "uint256"
        }
      ],
      "name": "owners",
      "outputs": [
        {
          "name": "",
          "type": "address"
        }
      ],
      "payable": false,
      "stateMutability": "view",
      "type": "function"
    },
    {
      "constant": true,
      "inputs": [
        {
          "name": "",
          "type": "address"
        }
      ],
      "name": "isOwner",
      "outputs": [
        {
          "name": "",
          "type": "bool"
        }
      ],
      "payable": false,
      "stateMutability": "view",
      "type": "function"
    },
    {
      "constant": true,
      "inputs": [
        {
          "name": "",
          "type": "uint256"
        }
      ],
      "name": "diplomes",
      "outputs": [
        {
          "name": "matricule",
          "type": "uint256"
        },
        {
          "name": "nom",
          "type": "string"
        },
        {
          "name": "prenom",
          "type": "string"
        },
        {
          "name": "university",
          "type": "string"
        },
        {
          "name": "speciality",
          "type": "string"
        },
        {
          "name": "Date",
          "type": "string"
        },
        {
          "name": "added",
          "type": "bool"
        },
        {
          "name": "nbvalidation",
          "type": "uint256"
        }
      ],
      "payable": false,
      "stateMutability": "view",
      "type": "function"
    },
    {
      "constant": true,
      "inputs": [
        {
          "name": "",
          "type": "address"
        },
        {
          "name": "",
          "type": "uint256"
        }
      ],
      "name": "diplomess",
      "outputs": [
        {
          "name": "matricule",
          "type": "uint256"
        },
        {
          "name": "nom",
          "type": "string"
        },
        {
          "name": "prenom",
          "type": "string"
        },
        {
          "name": "university",
          "type": "string"
        },
        {
          "name": "speciality",
          "type": "string"
        },
        {
          "name": "Date",
          "type": "string"
        },
        {
          "name": "added",
          "type": "bool"
        },
        {
          "name": "nbvalidation",
          "type": "uint256"
        }
      ],
      "payable": false,
      "stateMutability": "view",
      "type": "function"
    },
    {
      "constant": true,
      "inputs": [],
      "name": "numConfirmationsRequired",
      "outputs": [
        {
          "name": "",
          "type": "uint256"
        }
      ],
      "payable": false,
      "stateMutability": "view",
      "type": "function"
    },
    {
      "constant": true,
      "inputs": [
        {
          "name": "",
          "type": "address"
        }
      ],
      "name": "_blockCount",
      "outputs": [
        {
          "name": "",
          "type": "uint256"
        }
      ],
      "payable": false,
      "stateMutability": "view",
      "type": "function"
    },
    {
      "inputs": [
        {
          "name": "_owners",
          "type": "address[]"
        },
        {
          "name": "_numConfirmationsRequired",
          "type": "uint256"
        }
      ],
      "payable": false,
      "stateMutability": "nonpayable",
      "type": "constructor"
    },
    {
      "anonymous": false,
      "inputs": [
        {
          "indexed": false,
          "name": "matricule",
          "type": "uint256"
        },
        {
          "indexed": true,
          "name": "blockCount",
          "type": "uint256"
        },
        {
          "indexed": true,
          "name": "owner",
          "type": "address"
        }
      ],
      "name": "CreateDiplome",
      "type": "event"
    },
    {
      "anonymous": false,
      "inputs": [
        {
          "indexed": true,
          "name": "owner",
          "type": "address"
        },
        {
          "indexed": true,
          "name": "blockCount",
          "type": "uint256"
        }
      ],
      "name": "ValidateDiplome",
      "type": "event"
    },
    {
      "anonymous": false,
      "inputs": [
        {
          "indexed": true,
          "name": "owner",
          "type": "address"
        },
        {
          "indexed": true,
          "name": "blockCount",
          "type": "uint256"
        },
        {
          "indexed": false,
          "name": "added",
          "type": "bool"
        }
      ],
      "name": "AddDiplome",
      "type": "event"
    },
    {
      "constant": false,
      "inputs": [
        {
          "name": "matricule",
          "type": "uint256"
        },
        {
          "name": "nom",
          "type": "string"
        },
        {
          "name": "prenom",
          "type": "string"
        },
        {
          "name": "university",
          "type": "string"
        },
        {
          "name": "speciality",
          "type": "string"
        },
        {
          "name": "Date",
          "type": "string"
        }
      ],
      "name": "createDiplome",
      "outputs": [],
      "payable": false,
      "stateMutability": "nonpayable",
      "type": "function"
    },
    {
      "constant": false,
      "inputs": [
        {
          "name": "_blockCount",
          "type": "uint256"
        }
      ],
      "name": "validateDiplome",
      "outputs": [],
      "payable": false,
      "stateMutability": "nonpayable",
      "type": "function"
    },
    {
      "constant": false,
      "inputs": [
        {
          "name": "_blockCount",
          "type": "uint256"
        }
      ],
      "name": "addDiplome",
      "outputs": [],
      "payable": false,
      "stateMutability": "nonpayable",
      "type": "function"
    },
    {
      "constant": true,
      "inputs": [],
      "name": "getOwners",
      "outputs": [
        {
          "name": "",
          "type": "address[]"
        }
      ],
      "payable": false,
      "stateMutability": "view",
      "type": "function"
    },
    {
      "constant": true,
      "inputs": [],
      "name": "getdiplomesCount",
      "outputs": [
        {
          "name": "",
          "type": "uint256"
        }
      ],
      "payable": false,
      "stateMutability": "view",
      "type": "function"
    },
    {
      "constant": true,
      "inputs": [
        {
          "name": "_blockCount",
          "type": "uint256"
        }
      ],
      "name": "getdiplome",
      "outputs": [
        {
          "name": "matricule",
          "type": "uint256"
        },
        {
          "name": "nbvalidation",
          "type": "uint256"
        },
        {
          "name": "added",
          "type": "bool"
        }
      ],
      "payable": false,
      "stateMutability": "view",
      "type": "function"
    },
    {
      "constant": true,
      "inputs": [
        {
          "name": "mmatricule",
          "type": "uint256"
        }
      ],
      "name": "getdiplomeIndex",
      "outputs": [
        {
          "name": "index",
          "type": "int256"
        }
      ],
      "payable": false,
      "stateMutability": "view",
      "type": "function"
    },
    {
      "constant": true,
      "inputs": [
        {
          "name": "_blockCount",
          "type": "uint256"
        },
        {
          "name": "_owner",
          "type": "address"
        }
      ],
      "name": "isConfirmed",
      "outputs": [
        {
          "name": "",
          "type": "bool"
        }
      ],
      "payable": false,
      "stateMutability": "view",
      "type": "function"
    }
  ],
  "bytecode": "0x60806040523480156200001157600080fd5b5060405162001ca838038062001ca8833981018060405260408110156200003757600080fd5b8101908080516401000000008111156200005057600080fd5b820160208101848111156200006457600080fd5b81518560208202830111640100000000821117156200008257600080fd5b5050602090910151815191935091506000106200010057604080517f08c379a000000000000000000000000000000000000000000000000000000000815260206004820152600f60248201527f6f776e6572732072657175697265640000000000000000000000000000000000604482015290519081900360640190fd5b60008111801562000112575081518111155b1515620001a657604080517f08c379a000000000000000000000000000000000000000000000000000000000815260206004820152602860248201527f696e76616c6964206e756d626572206f6620726571756972656420636f6e666960448201527f726d6174696f6e73000000000000000000000000000000000000000000000000606482015290519081900360840190fd5b60005b82518110156200033e5760008382815181101515620001c457fe5b602090810290910101519050600160a060020a03811615156200024857604080517f08c379a000000000000000000000000000000000000000000000000000000000815260206004820152600d60248201527f696e76616c6964206f776e657200000000000000000000000000000000000000604482015290519081900360640190fd5b600160a060020a03811660009081526004602052604090205460ff1615620002d157604080517f08c379a000000000000000000000000000000000000000000000000000000000815260206004820152601060248201527f6f776e6572206e6f7420756e6971756500000000000000000000000000000000604482015290519081900360640190fd5b600160a060020a03166000818152600460205260408120805460ff1916600190811790915560038054808301825592527fc2575a0e9e593c00f959f8c92f12db2869c3395a3b0502d05e2516446f71f85b9091018054600160a060020a03191690921790915501620001a9565b506005555061195580620003536000396000f3fe6080604052600436106100c9577c01000000000000000000000000000000000000000000000000000000006000350463025e7c2781146100ce5780632f54bf6e1461011457806331dbec0a1461015b578063768ceb9a1461043357806380f59a651461068657806381662a7e146106bf578063a0e67e2b146106f8578063ac2ebb031461075d578063b23c3d6e14610799578063bf13a4c0146107c3578063d0549b85146107d8578063dc1ab0fc146107ed578063e9bb54f614610837578063f78b9eed1461086a575b600080fd5b3480156100da57600080fd5b506100f8600480360360208110156100f157600080fd5b5035610894565b60408051600160a060020a039092168252519081900360200190f35b34801561012057600080fd5b506101476004803603602081101561013757600080fd5b5035600160a060020a03166108bc565b604080519115158252519081900360200190f35b34801561016757600080fd5b50610431600480360360c081101561017e57600080fd5b813591908101906040810160208201356401000000008111156101a057600080fd5b8201836020820111156101b257600080fd5b803590602001918460018302840111640100000000831117156101d457600080fd5b91908080601f016020809104026020016040519081016040528093929190818152602001838380828437600092019190915250929594936020810193503591505064010000000081111561022757600080fd5b82018360208201111561023957600080fd5b8035906020019184600183028401116401000000008311171561025b57600080fd5b91908080601f01602080910402602001604051908101604052809392919081815260200183838082843760009201919091525092959493602081019350359150506401000000008111156102ae57600080fd5b8201836020820111156102c057600080fd5b803590602001918460018302840111640100000000831117156102e257600080fd5b91908080601f016020809104026020016040519081016040528093929190818152602001838380828437600092019190915250929594936020810193503591505064010000000081111561033557600080fd5b82018360208201111561034757600080fd5b8035906020019184600183028401116401000000008311171561036957600080fd5b91908080601f01602080910402602001604051908101604052809392919081815260200183838082843760009201919091525092959493602081019350359150506401000000008111156103bc57600080fd5b8201836020820111156103ce57600080fd5b803590602001918460018302840111640100000000831117156103f057600080fd5b91908080601f0160208091040260200160405190810160405280939291908181526020018383808284376000920191909152509295506108d1945050505050565b005b34801561043f57600080fd5b5061045d6004803603602081101561045657600080fd5b5035610b44565b6040518089815260200180602001806020018060200180602001806020018815151515815260200187815260200186810386528d818151815260200191508051906020019080838360005b838110156104c05781810151838201526020016104a8565b50505050905090810190601f1680156104ed5780820380516001836020036101000a031916815260200191505b5086810385528c5181528c516020918201918e019080838360005b83811015610520578181015183820152602001610508565b50505050905090810190601f16801561054d5780820380516001836020036101000a031916815260200191505b5086810384528b5181528b516020918201918d019080838360005b83811015610580578181015183820152602001610568565b50505050905090810190601f1680156105ad5780820380516001836020036101000a031916815260200191505b5086810383528a5181528a516020918201918c019080838360005b838110156105e05781810151838201526020016105c8565b50505050905090810190601f16801561060d5780820380516001836020036101000a031916815260200191505b5086810382528951815289516020918201918b019080838360005b83811015610640578181015183820152602001610628565b50505050905090810190601f16801561066d5780820380516001836020036101000a031916815260200191505b509d505050505050505050505050505060405180910390f35b34801561069257600080fd5b50610147600480360360408110156106a957600080fd5b5080359060200135600160a060020a0316610e60565b3480156106cb57600080fd5b5061045d600480360360408110156106e257600080fd5b50600160a060020a038135169060200135610ea7565b34801561070457600080fd5b5061070d610f1d565b60408051602080825283518183015283519192839290830191858101910280838360005b83811015610749578181015183820152602001610731565b505050509050019250505060405180910390f35b34801561076957600080fd5b506107876004803603602081101561078057600080fd5b5035610f80565b60408051918252519081900360200190f35b3480156107a557600080fd5b50610431600480360360208110156107bc57600080fd5b5035611319565b3480156107cf57600080fd5b506107876115a7565b3480156107e457600080fd5b506107876115ad565b3480156107f957600080fd5b506108176004803603602081101561081057600080fd5b50356115b3565b604080519384526020840192909252151582820152519081900360600190f35b34801561084357600080fd5b506107876004803603602081101561085a57600080fd5b5035600160a060020a03166115f5565b34801561087657600080fd5b506104316004803603602081101561088d57600080fd5b5035611607565b60038054829081106108a257fe5b600091825260209091200154600160a060020a0316905081565b60046020526000908152604090205460ff1681565b6003805460009081106108e057fe5b600091825260209091200154600160a060020a0316331461094b576040805160e560020a62461bcd02815260206004820152600f60248201527f6e6f7420646570617274656d656e740000000000000000000000000000000000604482015290519081900360640190fd5b85600061095782610f80565b905060001981146109b2576040805160e560020a62461bcd02815260206004820152600d60248201527f6469706c6f6d6520657869737400000000000000000000000000000000000000604482015290519081900360640190fd5b6002805460408051610100810182528b815260208082018c81529282018b9052606082018a90526080820189905260a08201889052600060c0830181905260e08301819052600185018087559590528151600985027f405787fa12a823e0f2b7631cc41b3ba8828b3321ca811111fa75cd3aa3bb5ace81019182559351805195969593949193610a6b937f405787fa12a823e0f2b7631cc41b3ba8828b3321ca811111fa75cd3aa3bb5acf909301929190910190611849565b5060408201518051610a87916002840191602090910190611849565b5060608201518051610aa3916003840191602090910190611849565b5060808201518051610abf916004840191602090910190611849565b5060a08201518051610adb916005840191602090910190611849565b5060c082015160068201805460ff191691151591909117905560e09091015160089091015550604080518a81529051339183917f2aaf126de63cdfa5c10bd61c5c296452ea55bb50a0d31665e678f740b75005dd916020908290030190a3505050505050505050565b6002805482908110610b5257fe5b9060005260206000209060090201600091509050806000015490806001018054600181600116156101000203166002900480601f016020809104026020016040519081016040528092919081815260200182805460018160011615610100020316600290048015610c045780601f10610bd957610100808354040283529160200191610c04565b820191906000526020600020905b815481529060010190602001808311610be757829003601f168201915b50505060028085018054604080516020601f6000196101006001871615020190941695909504928301859004850281018501909152818152959695945090925090830182828015610c965780601f10610c6b57610100808354040283529160200191610c96565b820191906000526020600020905b815481529060010190602001808311610c7957829003601f168201915b5050505060038301805460408051602060026001851615610100026000190190941693909304601f8101849004840282018401909252818152949594935090830182828015610d265780601f10610cfb57610100808354040283529160200191610d26565b820191906000526020600020905b815481529060010190602001808311610d0957829003601f168201915b5050505060048301805460408051602060026001851615610100026000190190941693909304601f8101849004840282018401909252818152949594935090830182828015610db65780601f10610d8b57610100808354040283529160200191610db6565b820191906000526020600020905b815481529060010190602001808311610d9957829003601f168201915b5050505060058301805460408051602060026001851615610100026000190190941693909304601f8101849004840282018401909252818152949594935090830182828015610e465780601f10610e1b57610100808354040283529160200191610e46565b820191906000526020600020905b815481529060010190602001808311610e2957829003601f168201915b505050506006830154600890930154919260ff1691905088565b600080600284815481101515610e7257fe5b60009182526020808320600160a060020a03871684526007600990930201919091019052604090205460ff1691505092915050565b60006020818152928152604080822084529181528190208054600180830180548551600293821615610100026000190190911692909204601f8101879004870283018701909552848252919492939092830182828015610c045780601f10610bd957610100808354040283529160200191610c04565b60606003805480602002602001604051908101604052809291908181526020018280548015610f7557602002820191906000526020600020905b8154600160a060020a03168152600190910190602001808311610f57575b505050505090505b90565b600080600019610f8e6118c7565b6002541515610fa4576000199350505050611314565b60005b60025481101561130d576002805482908110610fbf57fe5b9060005260206000209060090201610100604051908101604052908160008201548152602001600182018054600181600116156101000203166002900480601f01602080910402602001604051908101604052809291908181526020018280546001816001161561010002031660029004801561107d5780601f106110525761010080835404028352916020019161107d565b820191906000526020600020905b81548152906001019060200180831161106057829003601f168201915b5050509183525050600282810180546040805160206001841615610100026000190190931694909404601f8101839004830285018301909152808452938101939083018282801561110f5780601f106110e45761010080835404028352916020019161110f565b820191906000526020600020905b8154815290600101906020018083116110f257829003601f168201915b505050918352505060038201805460408051602060026001851615610100026000190190941693909304601f81018490048402820184019092528181529382019392918301828280156111a35780601f10611178576101008083540402835291602001916111a3565b820191906000526020600020905b81548152906001019060200180831161118657829003601f168201915b505050918352505060048201805460408051602060026001851615610100026000190190941693909304601f81018490048402820184019092528181529382019392918301828280156112375780601f1061120c57610100808354040283529160200191611237565b820191906000526020600020905b81548152906001019060200180831161121a57829003601f168201915b505050918352505060058201805460408051602060026001851615610100026000190190941693909304601f81018490048402820184019092528181529382019392918301828280156112cb5780601f106112a0576101008083540402835291602001916112cb565b820191906000526020600020905b8154815290600101906020018083116112ae57829003601f168201915b5050509183525050600682015460ff1615156020820152600890910154604090910152805190925086141561130557935061131492505050565b600101610fa7565b5090925050505b919050565b3360009081526004602052604090205460ff161515611382576040805160e560020a62461bcd02815260206004820152600960248201527f6e6f74206f776e65720000000000000000000000000000000000000000000000604482015290519081900360640190fd5b600254819081106113dd576040805160e560020a62461bcd02815260206004820152601660248201527f6469706c6f6d6520646f6573206e6f7420657869737400000000000000000000604482015290519081900360640190fd5b816002818154811015156113ed57fe5b600091825260209091206006600990920201015460ff161561147f576040805160e560020a62461bcd02815260206004820152603560248201527f6469706c6f6d6520616c72656164792076616c69646174656420616e6420616460448201527f64656420746f2074686520626c6f636b636861696e0000000000000000000000606482015290519081900360840190fd5b8260028181548110151561148f57fe5b600091825260208083203384526007600990930201919091019052604090205460ff1615611507576040805160e560020a62461bcd02815260206004820152601960248201527f6469706c6f6d6520616c72656164792076616c69646174656400000000000000604482015290519081900360640190fd5b600060028581548110151561151857fe5b600091825260208083203384526007600990930201918201905260408220805460ff191660019081179091556008820180549091019081905560055491935010611572575060068101805460ff19166001179081905560ff165b604051869033907f19f0e6c9ad7bd5b9c794d70a3ae7b5b512263d08b0d7ebf982e4a1e1bf30727390600090a3505050505050565b60025490565b60055481565b6000806000806002858154811015156115c857fe5b6000918252602090912060099091020180546008820154600690920154909791965060ff16945092505050565b60016020526000908152604090205481565b3360009081526004602052604090205460ff161515611670576040805160e560020a62461bcd02815260206004820152600960248201527f6e6f74206f776e65720000000000000000000000000000000000000000000000604482015290519081900360640190fd5b600254819081106116cb576040805160e560020a62461bcd02815260206004820152601660248201527f6469706c6f6d6520646f6573206e6f7420657869737400000000000000000000604482015290519081900360640190fd5b816002818154811015156116db57fe5b600091825260209091206006600990920201015460ff161561176d576040805160e560020a62461bcd02815260206004820152603560248201527f6469706c6f6d6520616c72656164792076616c69646174656420616e6420616460448201527f64656420746f2074686520626c6f636b636861696e0000000000000000000000606482015290519081900360840190fd5b60008060028581548110151561177f57fe5b906000526020600020906009020190506005548160080154101515156117ef576040805160e560020a62461bcd02815260206004820152601260248201527f63616e6e6f7420616464206469706c6f6d650000000000000000000000000000604482015290519081900360640190fd5b60068101805460ff1916600117908190556040805160ff9290921680151583529051909350869133917f808fe7cd68783ed2176569b4ccbc1ed403b9a46c388050b6f9ccb24a4d3877179181900360200190a35050505050565b828054600181600116156101000203166002900490600052602060002090601f016020900481019282601f1061188a57805160ff19168380011785556118b7565b828001600101855582156118b7579182015b828111156118b757825182559160200191906001019061189c565b506118c392915061190f565b5090565b61010060405190810160405280600081526020016060815260200160608152602001606081526020016060815260200160608152602001600015158152602001600081525090565b610f7d91905b808211156118c3576000815560010161191556fea165627a7a72305820db1496335919eac935bdf3069c4bb174801e0102901354741890d76ec751f0e40029",
  "source": "pragma solidity ^0.5.0;\r\ncontract Diploma {\r\n // uint public blockCount = 0; //unsigned int pour compter le nombre de block dans la blockchain\r\n// structure de notre block\r\n  struct Diplome {\r\n    //uint id_block;\r\n    uint matricule;\r\n    string nom; \r\n    string prenom;\r\n    string university;\r\n    string speciality;\r\n    string Date;\r\n    //string Departement;\r\n    bool added; //esque la transaction est deja ajout au blockchain ou pas (initialis tjr par false)\r\n    mapping(address => bool) isvalidated; //table li fiha chasue address de nos address li lzm yvalidiw w ida ils ont valider wla mzal \r\n    uint nbvalidation; //nombre de personnes qui ont valider ce diplome (initialis par 0)\r\n  }\r\n\r\n    mapping(address => mapping(uint => Diplome)) public diplomess;\r\n    mapping(address => uint) public _blockCount;\r\n  // 1-----> diplome1 \r\n  // 2-----> diplome2\r\n   Diplome[] public diplomes;\r\n   address[] public owners; //les addresses des owners (qui doivent valider avant avant executer la transaction (ajouter le diplome a la blockchain))\r\n   mapping(address => bool) public isOwner;\r\n   uint public numConfirmationsRequired;\r\n   //wesh nsauvgardiw f log lors de l'evenement create diplome \r\n   event CreateDiplome(\r\n        uint matricule,\r\n        uint indexed blockCount, \r\n        address indexed owner\r\n    );\r\n    event ValidateDiplome(address indexed owner, uint indexed blockCount);\r\n   // event RevokeConfirmation(address indexed owner, uint indexed _blockCount);\r\n    event AddDiplome(address indexed owner, uint indexed blockCount,bool added);\r\n\r\n\r\n\r\n//pour verifier que le block sender (message sender) appartient a notre liste d'addresses owner!\r\n  modifier onlyOwner() { \r\n        require(isOwner[msg.sender], \"not owner\");\r\n        _;\r\n    }\r\n\r\n\r\n//pour verifier que le block sender (message sender) est bien le departement car que lui qui peur creer un diplome!\r\n  modifier onlydept() { \r\n        require(msg.sender==owners[0], \"not departement\"); //reminder : nwerilhom que ca marche pas ki ndirha a 1 then nwerilhom bli tkhrej erreur et ca ne compile pas \r\n        _;\r\n    }\r\n\r\n    modifier diplomeExists(uint matricule) {\r\n        int i= getdiplomeIndex(matricule);\r\n        require(i==-1, \"diplome exist\"); \r\n\r\n        _;\r\n    }\r\n    modifier dipExists(uint _blockCount) {\r\n        require(_blockCount < diplomes.length, \"diplome does not exist\");\r\n        _;\r\n    }\r\n\r\n    modifier notadded(uint _blockCount) {\r\n        require(!diplomes[_blockCount].added, \"diplome already validated and added to the blockchain\");\r\n        _;\r\n    }\r\n\r\n    modifier notvalidated(uint _blockCount) {\r\n        require(!diplomes[_blockCount].isvalidated[msg.sender], \"diplome already validated\");\r\n        _;\r\n    }\r\n\r\n\r\n\r\n  constructor(address[] memory _owners, uint _numConfirmationsRequired) public {\r\n    require(_owners.length > 0, \"owners required\");\r\n        require(\r\n            _numConfirmationsRequired > 0 && _numConfirmationsRequired <= _owners.length,\r\n            \"invalid number of required confirmations\"\r\n        );\r\n\r\n        for (uint i = 0; i < _owners.length; i++) {\r\n            address owner = _owners[i];\r\n\r\n            require(owner != address(0), \"invalid owner\");\r\n            require(!isOwner[owner], \"owner not unique\");\r\n\r\n            isOwner[owner] = true;\r\n            owners.push(owner);\r\n        }\r\n\r\n    numConfirmationsRequired = _numConfirmationsRequired;\r\n\r\n    //createDiplome(181839024387,\"MAAMERi\",\"Kenza\",\"USTHB\",\"SSI\",\"25/03/2022\");//,\"Informatique\");\r\n    //createDiplome(181839024389,\"HAICHEUR\",\"Amani\",\"USTHB\",\"SII\",\"25/03/2022\");//,\"Informatique\");\r\n    //createDiplome(181839024388,\"BENALLOU\",\"Adel\",\"USTHB\",\"SSI\",\"25/03/2022\");//,\"Informatique\");\r\n  }\r\n\r\n\r\n\r\n\r\n//creating diplome for the first time from the departement\r\n  function createDiplome(uint  matricule,string memory nom,string memory prenom,string memory university,string memory speciality,string memory Date) \r\n    public\r\n        onlydept\r\n        diplomeExists(matricule)\r\n    {\r\n      uint blockCount =diplomes.length; //nombre de bloc non valid (en attente de validation)\r\n        diplomes.push( Diplome(matricule,nom,prenom,university,speciality,Date,false,0));\r\n\r\n        emit CreateDiplome(matricule, blockCount ,msg.sender);\r\n    \r\n    \r\n    \r\n  }\r\n\r\n\r\n  \r\n//validate the diplom from faculty,rectorat,\r\nfunction validateDiplome(uint _blockCount)\r\n        public\r\n        onlyOwner\r\n        dipExists(_blockCount)\r\n        notadded(_blockCount)\r\n        notvalidated(_blockCount)\r\n    {\r\n        Diplome storage diplome = diplomes[_blockCount];\r\n\r\n        diplome.isvalidated[msg.sender] = true;\r\n        diplome.nbvalidation += 1;\r\n        bool _added;\r\n\r\n        if(diplome.nbvalidation >= numConfirmationsRequired)\r\n        {\r\n        diplome.added = true;\r\n        _added=diplome.added;\r\n        \r\n        }\r\n        emit ValidateDiplome(msg.sender, _blockCount);\r\n    }\r\n /* function validate()\r\n  { \r\n    //if c bon validaw kamel \r\n    diplomevalide[]=Diplome(blockCount,matricule,nom,prenom,university,speciality,Date,Departement,false);\r\n  }\r\n*/\r\n\r\n function addDiplome(uint _blockCount)\r\n        public\r\n        onlyOwner\r\n        dipExists(_blockCount)\r\n        notadded(_blockCount)\r\n    { bool _added;\r\n        Diplome storage diplome = diplomes[_blockCount];\r\n\r\n        require(\r\n            diplome.nbvalidation >= numConfirmationsRequired,\r\n            \"cannot add diplome\"\r\n        );\r\n\r\n        diplome.added = true;\r\n        _added=diplome.added;\r\n       /* (bool success, ) = diplome.to.call.value(diplome.value)(diplome.data);\r\n        require(success, \"tx failed\");\r\n*/\r\n        emit AddDiplome(msg.sender, _blockCount,_added);\r\n    }\r\n\r\n\r\n\r\n\r\n\r\n\r\n function getOwners() public view returns (address[] memory) {\r\n        return owners;\r\n    }\r\n\r\n    function getdiplomesCount() public view returns (uint) {\r\n        return diplomes.length;\r\n    }\r\n\r\n    function getdiplome(uint _blockCount)\r\n        public\r\n        view\r\n        returns ( uint matricule, uint nbvalidation,bool added)\r\n    {\r\n        Diplome storage diplome = diplomes[_blockCount];\r\n\r\n        return (\r\n            diplome.matricule,\r\n            diplome.nbvalidation,\r\n            diplome.added\r\n        );\r\n    }\r\n\r\n    function getdiplomeIndex(uint mmatricule)\r\n        public\r\n        view\r\n        returns (int index)\r\n    { bool x;\r\n    int index=-1;\r\n        Diplome memory diplome;\r\n       if(diplomes.length==0)\r\n       {\r\n           return -1; \r\n       }\r\n         for (uint i = 0; i < diplomes.length; i++) {\r\n        diplome=diplomes[i];\r\n            if(diplome.matricule==mmatricule)\r\n           {\r\n                 x==true;\r\n                index=int(i);\r\n                return(index);\r\n            }\r\n\r\n         }\r\n         return(index);\r\n        \r\n    }\r\n    function isConfirmed(uint _blockCount, address _owner)\r\n        public\r\n        view\r\n        returns (bool)\r\n    {\r\n        Diplome storage diplome = diplomes[_blockCount];\r\n\r\n        return diplome.isvalidated[_owner];\r\n    }\r\n}",
  "sourcePath": "C:\\Users\\DELL\\Desktop\\blockchain2.0\\client\\contracts\\Diploma.sol",
  "compiler": {
    "name": "solc",
    "version": "0.5.1+commit.c8a2cb62.Emscripten.clang"
  },
  "schemaVersion": "3.4.7",
  "updatedAt": "2022-05-11T15:36:50.446Z",
  "networkType": "ethereum",
  "devdoc": {
    "methods": {}
  },
  "userdoc": {
    "methods": {}
  }
}