{
  "_format": "hh-sol-artifact-1",
  "contractName": "Factory",
  "sourceName": "contracts/Factory.sol",
  "abi": [
    {
      "constant": false,
      "inputs": [
        {
          "name": "matricule",
          "type": "uint256"
        },
        {
          "name": "nom",
          "type": "string"
        },
        {
          "name": "prenom",
          "type": "string"
        },
        {
          "name": "_university",
          "type": "string"
        },
        {
          "name": "speciality",
          "type": "string"
        },
        {
          "name": "date",
          "type": "string"
        }
      ],
      "name": "AddDiplome",
      "outputs": [],
      "payable": false,
      "stateMutability": "nonpayable",
      "type": "function"
    },
    {
      "constant": true,
      "inputs": [],
      "name": "getcontractaddress",
      "outputs": [
        {
          "name": "",
          "type": "uint256"
        }
      ],
      "payable": false,
      "stateMutability": "view",
      "type": "function"
    },
    {
      "constant": true,
      "inputs": [
        {
          "name": "",
          "type": "uint256"
        }
      ],
      "name": "diptovalidate",
      "outputs": [
        {
          "name": "matricule",
          "type": "uint256"
        },
        {
          "name": "nom",
          "type": "string"
        },
        {
          "name": "prenom",
          "type": "string"
        },
        {
          "name": "university",
          "type": "string"
        },
        {
          "name": "speciality",
          "type": "string"
        },
        {
          "name": "Date",
          "type": "string"
        },
        {
          "name": "added",
          "type": "bool"
        },
        {
          "name": "nbvalidation",
          "type": "uint256"
        }
      ],
      "payable": false,
      "stateMutability": "view",
      "type": "function"
    },
    {
      "constant": true,
      "inputs": [],
      "name": "ASC",
      "outputs": [
        {
          "name": "",
          "type": "address"
        }
      ],
      "payable": false,
      "stateMutability": "view",
      "type": "function"
    },
    {
      "constant": true,
      "inputs": [],
      "name": "storageContractAdress",
      "outputs": [
        {
          "name": "",
          "type": "address"
        }
      ],
      "payable": false,
      "stateMutability": "view",
      "type": "function"
    },
    {
      "constant": true,
      "inputs": [
        {
          "name": "",
          "type": "uint256"
        }
      ],
      "name": "DiplomaArray",
      "outputs": [
        {
          "name": "",
          "type": "address"
        }
      ],
      "payable": false,
      "stateMutability": "view",
      "type": "function"
    },
    {
      "constant": false,
      "inputs": [
        {
          "name": "faculty",
          "type": "address"
        },
        {
          "name": "name",
          "type": "string"
        }
      ],
      "name": "CreateNewDiploma",
      "outputs": [],
      "payable": false,
      "stateMutability": "nonpayable",
      "type": "function"
    },
    {
      "constant": true,
      "inputs": [
        {
          "name": "mmatricule",
          "type": "uint256"
        }
      ],
      "name": "getdiplomeIndex",
      "outputs": [
        {
          "name": "index",
          "type": "int256"
        }
      ],
      "payable": false,
      "stateMutability": "view",
      "type": "function"
    },
    {
      "constant": false,
      "inputs": [
        {
          "name": "_blockCount",
          "type": "uint256"
        }
      ],
      "name": "validateDiplome",
      "outputs": [],
      "payable": false,
      "stateMutability": "nonpayable",
      "type": "function"
    },
    {
      "constant": true,
      "inputs": [],
      "name": "getdiplomesCount",
      "outputs": [
        {
          "name": "",
          "type": "uint256"
        }
      ],
      "payable": false,
      "stateMutability": "view",
      "type": "function"
    },
    {
      "inputs": [
        {
          "name": "_storageContractAdress",
          "type": "address"
        },
        {
          "name": "_ministry",
          "type": "address"
        },
        {
          "name": "_university",
          "type": "address"
        },
        {
          "name": "name",
          "type": "string"
        }
      ],
      "payable": false,
      "stateMutability": "nonpayable",
      "type": "constructor"
    }
  ],
  "bytecode": "0x60806040523480156200001157600080fd5b506040516200454c3803806200454c833981018060405260808110156200003757600080fd5b8101908080519060200190929190805190602001909291908051906020019092919080516401000000008111156200006e57600080fd5b828101905060208101848111156200008557600080fd5b8151856001820283011164010000000082111715620000a357600080fd5b505092919050505083600560006101000a81548173ffffffffffffffffffffffffffffffffffffffff021916908373ffffffffffffffffffffffffffffffffffffffff160217905550600560009054906101000a900473ffffffffffffffffffffffffffffffffffffffff16600160006101000a81548173ffffffffffffffffffffffffffffffffffffffff021916908373ffffffffffffffffffffffffffffffffffffffff16021790555081600260006101000a81548173ffffffffffffffffffffffffffffffffffffffff021916908373ffffffffffffffffffffffffffffffffffffffff16021790555082600360006101000a81548173ffffffffffffffffffffffffffffffffffffffff021916908373ffffffffffffffffffffffffffffffffffffffff160217905550600160009054906101000a900473ffffffffffffffffffffffffffffffffffffffff1673ffffffffffffffffffffffffffffffffffffffff1663176138458330846040518463ffffffff167c0100000000000000000000000000000000000000000000000000000000028152600401808473ffffffffffffffffffffffffffffffffffffffff1673ffffffffffffffffffffffffffffffffffffffff1681526020018373ffffffffffffffffffffffffffffffffffffffff1673ffffffffffffffffffffffffffffffffffffffff16815260200180602001828103825283818151815260200191508051906020019080838360005b83811015620002e3578082015181840152602081019050620002c6565b50505050905090810190601f168015620003115780820380516001836020036101000a031916815260200191505b50945050505050600060405180830381600087803b1580156200033357600080fd5b505af115801562000348573d6000803e3d6000fd5b50505050505050506141ec80620003606000396000f3fe608060405260043610620000af576000357c0100000000000000000000000000000000000000000000000000000000900463ffffffff1680630be89c1014620000b45780631562137314620003f55780632a7ddd5014620004235780632c05ae2914620006b35780635af158e5146200070d5780635e17940014620007675780636ed53c4a14620007e6578063ac2ebb0314620008d5578063b23c3d6e1462000928578063bf13a4c01462000967575b600080fd5b348015620000c157600080fd5b50620003f3600480360360c0811015620000da57600080fd5b8101908080359060200190929190803590602001906401000000008111156200010257600080fd5b8201836020820111156200011557600080fd5b803590602001918460018302840111640100000000831117156200013857600080fd5b91908080601f016020809104026020016040519081016040528093929190818152602001838380828437600081840152601f19601f820116905080830192505050505050509192919290803590602001906401000000008111156200019c57600080fd5b820183602082011115620001af57600080fd5b80359060200191846001830284011164010000000083111715620001d257600080fd5b91908080601f016020809104026020016040519081016040528093929190818152602001838380828437600081840152601f19601f820116905080830192505050505050509192919290803590602001906401000000008111156200023657600080fd5b8201836020820111156200024957600080fd5b803590602001918460018302840111640100000000831117156200026c57600080fd5b91908080601f016020809104026020016040519081016040528093929190818152602001838380828437600081840152601f19601f82011690508083019250505050505050919291929080359060200190640100000000811115620002d057600080fd5b820183602082011115620002e357600080fd5b803590602001918460018302840111640100000000831117156200030657600080fd5b91908080601f016020809104026020016040519081016040528093929190818152602001838380828437600081840152601f19601f820116905080830192505050505050509192919290803590602001906401000000008111156200036a57600080fd5b8201836020820111156200037d57600080fd5b80359060200191846001830284011164010000000083111715620003a057600080fd5b91908080601f016020809104026020016040519081016040528093929190818152602001838380828437600081840152601f19601f82011690508083019250505050505050919291929050505062000995565b005b3480156200040257600080fd5b506200040d62000ae9565b6040518082815260200191505060405180910390f35b3480156200043057600080fd5b5062000460600480360360208110156200044957600080fd5b810190808035906020019092919050505062000af6565b6040518089815260200180602001806020018060200180602001806020018815151515815260200187815260200186810386528d818151815260200191508051906020019080838360005b83811015620004c8578082015181840152602081019050620004ab565b50505050905090810190601f168015620004f65780820380516001836020036101000a031916815260200191505b5086810385528c818151815260200191508051906020019080838360005b838110156200053157808201518184015260208101905062000514565b50505050905090810190601f1680156200055f5780820380516001836020036101000a031916815260200191505b5086810384528b818151815260200191508051906020019080838360005b838110156200059a5780820151818401526020810190506200057d565b50505050905090810190601f168015620005c85780820380516001836020036101000a031916815260200191505b5086810383528a818151815260200191508051906020019080838360005b8381101562000603578082015181840152602081019050620005e6565b50505050905090810190601f168015620006315780820380516001836020036101000a031916815260200191505b50868103825289818151815260200191508051906020019080838360005b838110156200066c5780820151818401526020810190506200064f565b50505050905090810190601f1680156200069a5780820380516001836020036101000a031916815260200191505b509d505050505050505050505050505060405180910390f35b348015620006c057600080fd5b50620006cb62000e67565b604051808273ffffffffffffffffffffffffffffffffffffffff1673ffffffffffffffffffffffffffffffffffffffff16815260200191505060405180910390f35b3480156200071a57600080fd5b506200072562000e8d565b604051808273ffffffffffffffffffffffffffffffffffffffff1673ffffffffffffffffffffffffffffffffffffffff16815260200191505060405180910390f35b3480156200077457600080fd5b50620007a4600480360360208110156200078d57600080fd5b810190808035906020019092919050505062000eb3565b604051808273ffffffffffffffffffffffffffffffffffffffff1673ffffffffffffffffffffffffffffffffffffffff16815260200191505060405180910390f35b348015620007f357600080fd5b50620008d3600480360360408110156200080c57600080fd5b81019080803573ffffffffffffffffffffffffffffffffffffffff169060200190929190803590602001906401000000008111156200084a57600080fd5b8201836020820111156200085d57600080fd5b803590602001918460018302840111640100000000831117156200088057600080fd5b91908080601f016020809104026020016040519081016040528093929190818152602001838380828437600081840152601f19601f82011690508083019250505050505050919291929050505062000ef2565b005b348015620008e257600080fd5b506200091260048036036020811015620008fb57600080fd5b810190808035906020019092919050505062001330565b6040518082815260200191505060405180910390f35b3480156200093557600080fd5b5062000965600480360360208110156200094e57600080fd5b810190808035906020019092919050505062001782565b005b3480156200097457600080fd5b506200097f62001a06565b6040518082815260200191505060405180910390f35b6200099f62001a12565b61010060405190810160405280888152602001878152602001868152602001858152602001848152602001838152602001600015158152602001600081525090506000819080600181540180825580915050906001820390600052602060002090600802016000909192909190915060008201518160000155602082015181600101908051906020019062000a3692919062001a5a565b50604082015181600201908051906020019062000a5592919062001a5a565b50606082015181600301908051906020019062000a7492919062001a5a565b50608082015181600401908051906020019062000a9392919062001a5a565b5060a082015181600501908051906020019062000ab292919062001a5a565b5060c08201518160060160006101000a81548160ff02191690831515021790555060e0820151816007015550505050505050505050565b6000600480549050905090565b60008181548110151562000b0657fe5b9060005260206000209060080201600091509050806000015490806001018054600181600116156101000203166002900480601f01602080910402602001604051908101604052809291908181526020018280546001816001161561010002031660029004801562000bbc5780601f1062000b905761010080835404028352916020019162000bbc565b820191906000526020600020905b81548152906001019060200180831162000b9e57829003601f168201915b505050505090806002018054600181600116156101000203166002900480601f01602080910402602001604051908101604052809291908181526020018280546001816001161561010002031660029004801562000c5e5780601f1062000c325761010080835404028352916020019162000c5e565b820191906000526020600020905b81548152906001019060200180831162000c4057829003601f168201915b505050505090806003018054600181600116156101000203166002900480601f01602080910402602001604051908101604052809291908181526020018280546001816001161561010002031660029004801562000d005780601f1062000cd45761010080835404028352916020019162000d00565b820191906000526020600020905b81548152906001019060200180831162000ce257829003601f168201915b505050505090806004018054600181600116156101000203166002900480601f01602080910402602001604051908101604052809291908181526020018280546001816001161561010002031660029004801562000da25780601f1062000d765761010080835404028352916020019162000da2565b820191906000526020600020905b81548152906001019060200180831162000d8457829003601f168201915b505050505090806005018054600181600116156101000203166002900480601f01602080910402602001604051908101604052809291908181526020018280546001816001161561010002031660029004801562000e445780601f1062000e185761010080835404028352916020019162000e44565b820191906000526020600020905b81548152906001019060200180831162000e2657829003601f168201915b5050505050908060060160009054906101000a900460ff16908060070154905088565b600160009054906101000a900473ffffffffffffffffffffffffffffffffffffffff1681565b600560009054906101000a900473ffffffffffffffffffffffffffffffffffffffff1681565b60048181548110151562000ec357fe5b906000526020600020016000915054906101000a900473ffffffffffffffffffffffffffffffffffffffff1681565b6000600560009054906101000a900473ffffffffffffffffffffffffffffffffffffffff16600360009054906101000a900473ffffffffffffffffffffffffffffffffffffffff1633858562000f4762001ae1565b808673ffffffffffffffffffffffffffffffffffffffff1673ffffffffffffffffffffffffffffffffffffffff1681526020018573ffffffffffffffffffffffffffffffffffffffff1673ffffffffffffffffffffffffffffffffffffffff1681526020018473ffffffffffffffffffffffffffffffffffffffff1673ffffffffffffffffffffffffffffffffffffffff1681526020018373ffffffffffffffffffffffffffffffffffffffff1673ffffffffffffffffffffffffffffffffffffffff16815260200180602001828103825283818151815260200191508051906020019080838360005b838110156200104e57808201518184015260208101905062001031565b50505050905090810190601f1680156200107c5780820380516001836020036101000a031916815260200191505b509650505050505050604051809103906000f080158015620010a2573d6000803e3d6000fd5b50905060048190806001815401808255809150509060018203906000526020600020016000909192909190916101000a81548173ffffffffffffffffffffffffffffffffffffffff021916908373ffffffffffffffffffffffffffffffffffffffff1602179055505060008173ffffffffffffffffffffffffffffffffffffffff166338cc48316040518163ffffffff167c010000000000000000000000000000000000000000000000000000000002815260040160206040518083038186803b1580156200117057600080fd5b505afa15801562001185573d6000803e3d6000fd5b505050506040513d60208110156200119c57600080fd5b81019080805190602001909291905050509050600160009054906101000a900473ffffffffffffffffffffffffffffffffffffffff1673ffffffffffffffffffffffffffffffffffffffff1663176138458583866040518463ffffffff167c0100000000000000000000000000000000000000000000000000000000028152600401808473ffffffffffffffffffffffffffffffffffffffff1673ffffffffffffffffffffffffffffffffffffffff1681526020018373ffffffffffffffffffffffffffffffffffffffff1673ffffffffffffffffffffffffffffffffffffffff16815260200180602001828103825283818151815260200191508051906020019080838360005b83811015620012c1578082015181840152602081019050620012a4565b50505050905090810190601f168015620012ef5780820380516001836020036101000a031916815260200191505b50945050505050600060405180830381600087803b1580156200131157600080fd5b505af115801562001326573d6000803e3d6000fd5b5050505050505050565b60008060007fffffffffffffffffffffffffffffffffffffffffffffffffffffffffffffffff90506200136262001a12565b6000808054905014156200139c577fffffffffffffffffffffffffffffffffffffffffffffffffffffffffffffffff93505050506200177d565b60008090505b6000805490508110156200177557600081815481101515620013c057fe5b9060005260206000209060080201610100604051908101604052908160008201548152602001600182018054600181600116156101000203166002900480601f016020809104026020016040519081016040528092919081815260200182805460018160011615610100020316600290048015620014825780601f10620014565761010080835404028352916020019162001482565b820191906000526020600020905b8154815290600101906020018083116200146457829003601f168201915b50505050508152602001600282018054600181600116156101000203166002900480601f016020809104026020016040519081016040528092919081815260200182805460018160011615610100020316600290048015620015285780601f10620014fc5761010080835404028352916020019162001528565b820191906000526020600020905b8154815290600101906020018083116200150a57829003601f168201915b50505050508152602001600382018054600181600116156101000203166002900480601f016020809104026020016040519081016040528092919081815260200182805460018160011615610100020316600290048015620015ce5780601f10620015a257610100808354040283529160200191620015ce565b820191906000526020600020905b815481529060010190602001808311620015b057829003601f168201915b50505050508152602001600482018054600181600116156101000203166002900480601f016020809104026020016040519081016040528092919081815260200182805460018160011615610100020316600290048015620016745780601f10620016485761010080835404028352916020019162001674565b820191906000526020600020905b8154815290600101906020018083116200165657829003601f168201915b50505050508152602001600582018054600181600116156101000203166002900480601f0160208091040260200160405190810160405280929190818152602001828054600181600116156101000203166002900480156200171a5780601f10620016ee576101008083540402835291602001916200171a565b820191906000526020600020905b815481529060010190602001808311620016fc57829003601f168201915b505050505081526020016006820160009054906101000a900460ff16151515158152602001600782015481525050915085826000015114156200176757809250829450505050506200177d565b8080600101915050620013a2565b508193505050505b919050565b600260009054906101000a900473ffffffffffffffffffffffffffffffffffffffff1673ffffffffffffffffffffffffffffffffffffffff163373ffffffffffffffffffffffffffffffffffffffff1614151562001848576040517f08c379a000000000000000000000000000000000000000000000000000000000815260040180806020018281038252600e8152602001807f6e6f7420756e697665727369747900000000000000000000000000000000000081525060200191505060405180910390fd5b8060008054905081101515620018c6576040517f08c379a00000000000000000000000000000000000000000000000000000000081526004018080602001828103825260168152602001807f6469706c6f6d6520646f6573206e6f742065786973740000000000000000000081525060200191505060405180910390fd5b81600081815481101515620018d757fe5b906000526020600020906008020160060160009054906101000a900460ff1615151562001992576040517f08c379a00000000000000000000000000000000000000000000000000000000081526004018080602001828103825260358152602001807f6469706c6f6d6520616c72656164792076616c69646174656420616e6420616481526020017f64656420746f2074686520626c6f636b636861696e000000000000000000000081525060400191505060405180910390fd5b60008084815481101515620019a357fe5b90600052602060002090600802019050600181600701819055506000600182600701541415620019ff5760018260060160006101000a81548160ff0219169083151502179055508160060160009054906101000a900460ff1690505b5050505050565b60008080549050905090565b61010060405190810160405280600081526020016060815260200160608152602001606081526020016060815260200160608152602001600015158152602001600081525090565b828054600181600116156101000203166002900490600052602060002090601f016020900481019282601f1062001a9d57805160ff191683800117855562001ace565b8280016001018555821562001ace579182015b8281111562001acd57825182559160200191906001019062001ab0565b5b50905062001add919062001af2565b5090565b6040516126a68062001b1b83390190565b62001b1791905b8082111562001b1357600081600090555060010162001af9565b5090565b9056fe60806040523480156200001157600080fd5b50604051620026a6380380620026a6833981018060405260a08110156200003757600080fd5b810190808051906020019092919080519060200190929190805190602001909291908051906020019092919080516401000000008111156200007857600080fd5b828101905060208101848111156200008f57600080fd5b8151856001820283011164010000000082111715620000ad57600080fd5b505092919050505084600760006101000a81548173ffffffffffffffffffffffffffffffffffffffff021916908373ffffffffffffffffffffffffffffffffffffffff160217905550600760009054906101000a900473ffffffffffffffffffffffffffffffffffffffff166000806101000a81548173ffffffffffffffffffffffffffffffffffffffff021916908373ffffffffffffffffffffffffffffffffffffffff1602179055506060604051908101604052808573ffffffffffffffffffffffffffffffffffffffff1673ffffffffffffffffffffffffffffffffffffffff1681526020018473ffffffffffffffffffffffffffffffffffffffff1673ffffffffffffffffffffffffffffffffffffffff1681526020018373ffffffffffffffffffffffffffffffffffffffff1673ffffffffffffffffffffffffffffffffffffffff1681525060069060036200020a929190620004eb565b5060018060008673ffffffffffffffffffffffffffffffffffffffff1673ffffffffffffffffffffffffffffffffffffffff16815260200190815260200160002060006101000a81548160ff02191690831515021790555060018060008573ffffffffffffffffffffffffffffffffffffffff1673ffffffffffffffffffffffffffffffffffffffff16815260200190815260200160002060006101000a81548160ff0219169083151502179055506000600160008473ffffffffffffffffffffffffffffffffffffffff1673ffffffffffffffffffffffffffffffffffffffff16815260200190815260200160002060006101000a81548160ff021916908315150217905550733819730860392e917b8ae9b14e95751f765b4490600560006101000a81548173ffffffffffffffffffffffffffffffffffffffff021916908373ffffffffffffffffffffffffffffffffffffffff1602179055506000809054906101000a900473ffffffffffffffffffffffffffffffffffffffff1673ffffffffffffffffffffffffffffffffffffffff1663176138458330846040518463ffffffff167c0100000000000000000000000000000000000000000000000000000000028152600401808473ffffffffffffffffffffffffffffffffffffffff1673ffffffffffffffffffffffffffffffffffffffff1681526020018373ffffffffffffffffffffffffffffffffffffffff1673ffffffffffffffffffffffffffffffffffffffff16815260200180602001828103825283818151815260200191508051906020019080838360005b83811015620004775780820151818401526020810190506200045a565b50505050905090810190601f168015620004a55780820380516001836020036101000a031916815260200191505b50945050505050600060405180830381600087803b158015620004c757600080fd5b505af1158015620004dc573d6000803e3d6000fd5b505050505050505050620005c0565b82805482825590600052602060002090810192821562000567579160200282015b82811115620005665782518260006101000a81548173ffffffffffffffffffffffffffffffffffffffff021916908373ffffffffffffffffffffffffffffffffffffffff160217905550916020019190600101906200050c565b5b5090506200057691906200057a565b5090565b620005bd91905b80821115620005b957600081816101000a81549073ffffffffffffffffffffffffffffffffffffffff02191690555060010162000581565b5090565b90565b6120d680620005d06000396000f3fe6080604052600436106100ba576000357c0100000000000000000000000000000000000000000000000000000000900463ffffffff168063025e7c27146100bf5780632f54bf6e1461013a57806331dbec0a146101a357806338cc4831146104d1578063768ceb9a1461052857806381662a7e146107a5578063a0e67e2b14610a42578063ac2ebb0314610aae578063bf13a4c014610afd578063dc1ab0fc14610b28578063e9bb54f614610b89578063f3c798e514610bee575b600080fd5b3480156100cb57600080fd5b506100f8600480360360208110156100e257600080fd5b8101908080359060200190929190505050610c45565b604051808273ffffffffffffffffffffffffffffffffffffffff1673ffffffffffffffffffffffffffffffffffffffff16815260200191505060405180910390f35b34801561014657600080fd5b506101896004803603602081101561015d57600080fd5b81019080803573ffffffffffffffffffffffffffffffffffffffff169060200190929190505050610c83565b604051808215151515815260200191505060405180910390f35b3480156101af57600080fd5b506104cf600480360360c08110156101c657600080fd5b8101908080359060200190929190803590602001906401000000008111156101ed57600080fd5b8201836020820111156101ff57600080fd5b8035906020019184600183028401116401000000008311171561022157600080fd5b91908080601f016020809104026020016040519081016040528093929190818152602001838380828437600081840152601f19601f8201169050808301925050505050505091929192908035906020019064010000000081111561028457600080fd5b82018360208201111561029657600080fd5b803590602001918460018302840111640100000000831117156102b857600080fd5b91908080601f016020809104026020016040519081016040528093929190818152602001838380828437600081840152601f19601f8201169050808301925050505050505091929192908035906020019064010000000081111561031b57600080fd5b82018360208201111561032d57600080fd5b8035906020019184600183028401116401000000008311171561034f57600080fd5b91908080601f016020809104026020016040519081016040528093929190818152602001838380828437600081840152601f19601f820116905080830192505050505050509192919290803590602001906401000000008111156103b257600080fd5b8201836020820111156103c457600080fd5b803590602001918460018302840111640100000000831117156103e657600080fd5b91908080601f016020809104026020016040519081016040528093929190818152602001838380828437600081840152601f19601f8201169050808301925050505050505091929192908035906020019064010000000081111561044957600080fd5b82018360208201111561045b57600080fd5b8035906020019184600183028401116401000000008311171561047d57600080fd5b91908080601f016020809104026020016040519081016040528093929190818152602001838380828437600081840152601f19601f820116905080830192505050505050509192919290505050610ca3565b005b3480156104dd57600080fd5b506104e66113a1565b604051808273ffffffffffffffffffffffffffffffffffffffff1673ffffffffffffffffffffffffffffffffffffffff16815260200191505060405180910390f35b34801561053457600080fd5b506105616004803603602081101561054b57600080fd5b81019080803590602001909291905050506113a9565b6040518089815260200180602001806020018060200180602001806020018815151515815260200187815260200186810386528d818151815260200191508051906020019080838360005b838110156105c75780820151818401526020810190506105ac565b50505050905090810190601f1680156105f45780820380516001836020036101000a031916815260200191505b5086810385528c818151815260200191508051906020019080838360005b8381101561062d578082015181840152602081019050610612565b50505050905090810190601f16801561065a5780820380516001836020036101000a031916815260200191505b5086810384528b818151815260200191508051906020019080838360005b83811015610693578082015181840152602081019050610678565b50505050905090810190601f1680156106c05780820380516001836020036101000a031916815260200191505b5086810383528a818151815260200191508051906020019080838360005b838110156106f95780820151818401526020810190506106de565b50505050905090810190601f1680156107265780820380516001836020036101000a031916815260200191505b50868103825289818151815260200191508051906020019080838360005b8381101561075f578082015181840152602081019050610744565b50505050905090810190601f16801561078c5780820380516001836020036101000a031916815260200191505b509d505050505050505050505050505060405180910390f35b3480156107b157600080fd5b506107fe600480360360408110156107c857600080fd5b81019080803573ffffffffffffffffffffffffffffffffffffffff16906020019092919080359060200190929190505050611705565b6040518089815260200180602001806020018060200180602001806020018815151515815260200187815260200186810386528d818151815260200191508051906020019080838360005b83811015610864578082015181840152602081019050610849565b50505050905090810190601f1680156108915780820380516001836020036101000a031916815260200191505b5086810385528c818151815260200191508051906020019080838360005b838110156108ca5780820151818401526020810190506108af565b50505050905090810190601f1680156108f75780820380516001836020036101000a031916815260200191505b5086810384528b818151815260200191508051906020019080838360005b83811015610930578082015181840152602081019050610915565b50505050905090810190601f16801561095d5780820380516001836020036101000a031916815260200191505b5086810383528a818151815260200191508051906020019080838360005b8381101561099657808201518184015260208101905061097b565b50505050905090810190601f1680156109c35780820380516001836020036101000a031916815260200191505b50868103825289818151815260200191508051906020019080838360005b838110156109fc5780820151818401526020810190506109e1565b50505050905090810190601f168015610a295780820380516001836020036101000a031916815260200191505b509d505050505050505050505050505060405180910390f35b348015610a4e57600080fd5b50610a57611a5f565b6040518080602001828103825283818151815260200191508051906020019060200280838360005b83811015610a9a578082015181840152602081019050610a7f565b505050509050019250505060405180910390f35b348015610aba57600080fd5b50610ae760048036036020811015610ad157600080fd5b8101908080359060200190929190505050611aed565b6040518082815260200191505060405180910390f35b348015610b0957600080fd5b50610b12611f23565b6040518082815260200191505060405180910390f35b348015610b3457600080fd5b50610b6160048036036020811015610b4b57600080fd5b8101908080359060200190929190505050611f30565b6040518084815260200183815260200182151515158152602001935050505060405180910390f35b348015610b9557600080fd5b50610bd860048036036020811015610bac57600080fd5b81019080803573ffffffffffffffffffffffffffffffffffffffff169060200190929190505050611f7f565b6040518082815260200191505060405180910390f35b348015610bfa57600080fd5b50610c03611f97565b604051808273ffffffffffffffffffffffffffffffffffffffff1673ffffffffffffffffffffffffffffffffffffffff16815260200191505060405180910390f35b600681815481101515610c5457fe5b906000526020600020016000915054906101000a900473ffffffffffffffffffffffffffffffffffffffff1681565b60016020528060005260406000206000915054906101000a900460ff1681565b60066002815481101515610cb357fe5b9060005260206000200160009054906101000a900473ffffffffffffffffffffffffffffffffffffffff1673ffffffffffffffffffffffffffffffffffffffff163373ffffffffffffffffffffffffffffffffffffffff16141515610d80576040517f08c379a000000000000000000000000000000000000000000000000000000000815260040180806020018281038252600b8152602001807f6e6f7420666163756c747900000000000000000000000000000000000000000081525060200191505060405180910390fd5b856000610d8c82611aed565b90507fffffffffffffffffffffffffffffffffffffffffffffffffffffffffffffffff81141515610e25576040517f08c379a000000000000000000000000000000000000000000000000000000000815260040180806020018281038252600d8152602001807f6469706c6f6d652065786973740000000000000000000000000000000000000081525060200191505060405180910390fd5b6000733819730860392e917b8ae9b14e95751f765b44909050600060048054905090506004610100604051908101604052808c81526020018b81526020018a8152602001898152602001888152602001878152602001600015158152602001600081525090806001815401808255809150509060018203906000526020600020906008020160009091929091909150600082015181600001556020820151816001019080519060200190610eda929190611fbd565b506040820151816002019080519060200190610ef7929190611fbd565b506060820151816003019080519060200190610f14929190611fbd565b506080820151816004019080519060200190610f31929190611fbd565b5060a0820151816005019080519060200190610f4e929190611fbd565b5060c08201518160060160006101000a81548160ff02191690831515021790555060e0820151816007015550505060008060009054906101000a900473ffffffffffffffffffffffffffffffffffffffff1673ffffffffffffffffffffffffffffffffffffffff1663ae22c57d600560009054906101000a900473ffffffffffffffffffffffffffffffffffffffff166040518263ffffffff167c0100000000000000000000000000000000000000000000000000000000028152600401808273ffffffffffffffffffffffffffffffffffffffff1673ffffffffffffffffffffffffffffffffffffffff16815260200191505060206040518083038186803b15801561105a57600080fd5b505afa15801561106e573d6000803e3d6000fd5b505050506040513d602081101561108457600080fd5b8101908080519060200190929190505050905060008190508073ffffffffffffffffffffffffffffffffffffffff16630be89c108d8d8d8d8d8d6040518763ffffffff167c010000000000000000000000000000000000000000000000000000000002815260040180878152602001806020018060200180602001806020018060200186810386528b818151815260200191508051906020019080838360005b8381101561113f578082015181840152602081019050611124565b50505050905090810190601f16801561116c5780820380516001836020036101000a031916815260200191505b5086810385528a818151815260200191508051906020019080838360005b838110156111a557808201518184015260208101905061118a565b50505050905090810190601f1680156111d25780820380516001836020036101000a031916815260200191505b50868103845289818151815260200191508051906020019080838360005b8381101561120b5780820151818401526020810190506111f0565b50505050905090810190601f1680156112385780820380516001836020036101000a031916815260200191505b50868103835288818151815260200191508051906020019080838360005b83811015611271578082015181840152602081019050611256565b50505050905090810190601f16801561129e5780820380516001836020036101000a031916815260200191505b50868103825287818151815260200191508051906020019080838360005b838110156112d75780820151818401526020810190506112bc565b50505050905090810190601f1680156113045780820380516001836020036101000a031916815260200191505b509b505050505050505050505050600060405180830381600087803b15801561132c57600080fd5b505af1158015611340573d6000803e3d6000fd5b505050503373ffffffffffffffffffffffffffffffffffffffff16837f2aaf126de63cdfa5c10bd61c5c296452ea55bb50a0d31665e678f740b75005dd8e6040518082815260200191505060405180910390a3505050505050505050505050565b600030905090565b6004818154811015156113b857fe5b9060005260206000209060080201600091509050806000015490806001018054600181600116156101000203166002900480601f01602080910402602001604051908101604052809291908181526020018280546001816001161561010002031660029004801561146a5780601f1061143f5761010080835404028352916020019161146a565b820191906000526020600020905b81548152906001019060200180831161144d57829003601f168201915b505050505090806002018054600181600116156101000203166002900480601f0160208091040260200160405190810160405280929190818152602001828054600181600116156101000203166002900480156115085780601f106114dd57610100808354040283529160200191611508565b820191906000526020600020905b8154815290600101906020018083116114eb57829003601f168201915b505050505090806003018054600181600116156101000203166002900480601f0160208091040260200160405190810160405280929190818152602001828054600181600116156101000203166002900480156115a65780601f1061157b576101008083540402835291602001916115a6565b820191906000526020600020905b81548152906001019060200180831161158957829003601f168201915b505050505090806004018054600181600116156101000203166002900480601f0160208091040260200160405190810160405280929190818152602001828054600181600116156101000203166002900480156116445780601f1061161957610100808354040283529160200191611644565b820191906000526020600020905b81548152906001019060200180831161162757829003601f168201915b505050505090806005018054600181600116156101000203166002900480601f0160208091040260200160405190810160405280929190818152602001828054600181600116156101000203166002900480156116e25780601f106116b7576101008083540402835291602001916116e2565b820191906000526020600020905b8154815290600101906020018083116116c557829003601f168201915b5050505050908060060160009054906101000a900460ff16908060070154905088565b600260205281600052604060002060205280600052604060002060009150915050806000015490806001018054600181600116156101000203166002900480601f0160208091040260200160405190810160405280929190818152602001828054600181600116156101000203166002900480156117c45780601f10611799576101008083540402835291602001916117c4565b820191906000526020600020905b8154815290600101906020018083116117a757829003601f168201915b505050505090806002018054600181600116156101000203166002900480601f0160208091040260200160405190810160405280929190818152602001828054600181600116156101000203166002900480156118625780601f1061183757610100808354040283529160200191611862565b820191906000526020600020905b81548152906001019060200180831161184557829003601f168201915b505050505090806003018054600181600116156101000203166002900480601f0160208091040260200160405190810160405280929190818152602001828054600181600116156101000203166002900480156119005780601f106118d557610100808354040283529160200191611900565b820191906000526020600020905b8154815290600101906020018083116118e357829003601f168201915b505050505090806004018054600181600116156101000203166002900480601f01602080910402602001604051908101604052809291908181526020018280546001816001161561010002031660029004801561199e5780601f106119735761010080835404028352916020019161199e565b820191906000526020600020905b81548152906001019060200180831161198157829003601f168201915b505050505090806005018054600181600116156101000203166002900480601f016020809104026020016040519081016040528092919081815260200182805460018160011615610100020316600290048015611a3c5780601f10611a1157610100808354040283529160200191611a3c565b820191906000526020600020905b815481529060010190602001808311611a1f57829003601f168201915b5050505050908060060160009054906101000a900460ff16908060070154905088565b60606006805480602002602001604051908101604052809291908181526020018280548015611ae357602002820191906000526020600020905b8160009054906101000a900473ffffffffffffffffffffffffffffffffffffffff1673ffffffffffffffffffffffffffffffffffffffff1681526020019060010190808311611a99575b5050505050905090565b60008060007fffffffffffffffffffffffffffffffffffffffffffffffffffffffffffffffff9050611b1d61203d565b60006004805490501415611b56577fffffffffffffffffffffffffffffffffffffffffffffffffffffffffffffffff9350505050611f1e565b60008090505b600480549050811015611f1657600481815481101515611b7857fe5b9060005260206000209060080201610100604051908101604052908160008201548152602001600182018054600181600116156101000203166002900480601f016020809104026020016040519081016040528092919081815260200182805460018160011615610100020316600290048015611c365780601f10611c0b57610100808354040283529160200191611c36565b820191906000526020600020905b815481529060010190602001808311611c1957829003601f168201915b50505050508152602001600282018054600181600116156101000203166002900480601f016020809104026020016040519081016040528092919081815260200182805460018160011615610100020316600290048015611cd85780601f10611cad57610100808354040283529160200191611cd8565b820191906000526020600020905b815481529060010190602001808311611cbb57829003601f168201915b50505050508152602001600382018054600181600116156101000203166002900480601f016020809104026020016040519081016040528092919081815260200182805460018160011615610100020316600290048015611d7a5780601f10611d4f57610100808354040283529160200191611d7a565b820191906000526020600020905b815481529060010190602001808311611d5d57829003601f168201915b50505050508152602001600482018054600181600116156101000203166002900480601f016020809104026020016040519081016040528092919081815260200182805460018160011615610100020316600290048015611e1c5780601f10611df157610100808354040283529160200191611e1c565b820191906000526020600020905b815481529060010190602001808311611dff57829003601f168201915b50505050508152602001600582018054600181600116156101000203166002900480601f016020809104026020016040519081016040528092919081815260200182805460018160011615610100020316600290048015611ebe5780601f10611e9357610100808354040283529160200191611ebe565b820191906000526020600020905b815481529060010190602001808311611ea157829003601f168201915b505050505081526020016006820160009054906101000a900460ff1615151515815260200160078201548152505091508582600001511415611f095780925082945050505050611f1e565b8080600101915050611b5c565b508193505050505b919050565b6000600480549050905090565b600080600080600485815481101515611f4557fe5b90600052602060002090600802019050806000015481600701548260060160009054906101000a900460ff16935093509350509193909250565b60036020528060005260406000206000915090505481565b600560009054906101000a900473ffffffffffffffffffffffffffffffffffffffff1681565b828054600181600116156101000203166002900490600052602060002090601f016020900481019282601f10611ffe57805160ff191683800117855561202c565b8280016001018555821561202c579182015b8281111561202b578251825591602001919060010190612010565b5b5090506120399190612085565b5090565b61010060405190810160405280600081526020016060815260200160608152602001606081526020016060815260200160608152602001600015158152602001600081525090565b6120a791905b808211156120a357600081600090555060010161208b565b5090565b9056fea165627a7a723058204b63f9158946f4dea8baff024b93468585ed25a9cb9b233a36c0351e3ecf94d40029a165627a7a7230582098b599590a9520e00451390af817103bf425b883fcc0ae0e76cf1b462364ed3c0029",
  "linkReferences": {},
  "deployedLinkReferences": {}
}